{
  "contractName": "sro",
  "abi": [
    {
      "inputs": [],
      "payable": false,
      "stateMutability": "nonpayable",
      "type": "constructor"
    },
    {
      "constant": true,
      "inputs": [],
      "name": "sentence",
      "outputs": [
        {
          "internalType": "string",
          "name": "",
          "type": "string"
        }
      ],
      "payable": false,
      "stateMutability": "view",
      "type": "function"
    },
    {
      "constant": true,
      "inputs": [],
      "name": "userName",
      "outputs": [
        {
          "internalType": "string",
          "name": "",
          "type": "string"
        }
      ],
      "payable": false,
      "stateMutability": "view",
      "type": "function"
    },
    {
      "constant": true,
      "inputs": [],
      "name": "saySomething",
      "outputs": [
        {
          "internalType": "string",
          "name": "",
          "type": "string"
        }
      ],
      "payable": false,
      "stateMutability": "view",
      "type": "function"
    },
    {
      "constant": false,
      "inputs": [
        {
          "internalType": "string",
          "name": "newSentence",
          "type": "string"
        }
      ],
      "name": "changeSentence",
      "outputs": [],
      "payable": false,
      "stateMutability": "nonpayable",
      "type": "function"
    }
  ],
  "bytecode": "0x608060405234801561001057600080fd5b506040518060400160405280601281526020017f48656c6c6f2053524f20746f636b656e202100000000000000000000000000008152506000908051906020019061005c9291906100ae565b506040518060400160405280600881526020017f48656c6c6f20526f000000000000000000000000000000000000000000000000815250600190805190602001906100a89291906100ae565b50610153565b828054600181600116156101000203166002900490600052602060002090601f016020900481019282601f106100ef57805160ff191683800117855561011d565b8280016001018555821561011d579182015b8281111561011c578251825591602001919060010190610101565b5b50905061012a919061012e565b5090565b61015091905b8082111561014c576000816000905550600101610134565b5090565b90565b61074e806101626000396000f3fe608060405234801561001057600080fd5b506004361061004c5760003560e01c80631a8850f21461005157806370019b351461010c5780638463fa6c1461018f578063fbd6155314610212575b600080fd5b61010a6004803603602081101561006757600080fd5b810190808035906020019064010000000081111561008457600080fd5b82018360208201111561009657600080fd5b803590602001918460018302840111640100000000831117156100b857600080fd5b91908080601f016020809104026020016040519081016040528093929190818152602001838380828437600081840152601f19601f820116905080830192505050505050509192919290505050610295565b005b6101146102af565b6040518080602001828103825283818151815260200191508051906020019080838360005b83811015610154578082015181840152602081019050610139565b50505050905090810190601f1680156101815780820380516001836020036101000a031916815260200191505b509250505060405180910390f35b61019761034d565b6040518080602001828103825283818151815260200191508051906020019080838360005b838110156101d75780820151818401526020810190506101bc565b50505050905090810190601f1680156102045780820380516001836020036101000a031916815260200191505b509250505060405180910390f35b61021a6103eb565b6040518080602001828103825283818151815260200191508051906020019080838360005b8381101561025a57808201518184015260208101905061023f565b50505050905090810190601f1680156102875780820380516001836020036101000a031916815260200191505b509250505060405180910390f35b80600090805190602001906102ab929190610674565b5050565b60018054600181600116156101000203166002900480601f0160208091040260200160405190810160405280929190818152602001828054600181600116156101000203166002900480156103455780601f1061031a57610100808354040283529160200191610345565b820191906000526020600020905b81548152906001019060200180831161032857829003601f168201915b505050505081565b60008054600181600116156101000203166002900480601f0160208091040260200160405190810160405280929190818152602001828054600181600116156101000203166002900480156103e35780601f106103b8576101008083540402835291602001916103e3565b820191906000526020600020905b8154815290600101906020018083116103c657829003601f168201915b505050505081565b606061052b60008054600181600116156101000203166002900480601f0160208091040260200160405190810160405280929190818152602001828054600181600116156101000203166002900480156104865780601f1061045b57610100808354040283529160200191610486565b820191906000526020600020905b81548152906001019060200180831161046957829003601f168201915b505050505060018054600181600116156101000203166002900480601f0160208091040260200160405190810160405280929190818152602001828054600181600116156101000203166002900480156105215780601f106104f657610100808354040283529160200191610521565b820191906000526020600020905b81548152906001019060200180831161050457829003601f168201915b5050505050610530565b905090565b6060808390506060839050606081518351016040519080825280601f01601f1916602001820160405280156105745781602001600182028038833980820191505090505b5090506060819050600080600091505b85518210156105f25785828151811061059957fe5b602001015160f81c60f81b8382806001019350815181106105b657fe5b60200101907effffffffffffffffffffffffffffffffffffffffffffffffffffffffffffff1916908160001a9053508180600101925050610584565b600091505b84518210156106655784828151811061060c57fe5b602001015160f81c60f81b83828060010193508151811061062957fe5b60200101907effffffffffffffffffffffffffffffffffffffffffffffffffffffffffffff1916908160001a90535081806001019250506105f7565b82965050505050505092915050565b828054600181600116156101000203166002900490600052602060002090601f016020900481019282601f106106b557805160ff19168380011785556106e3565b828001600101855582156106e3579182015b828111156106e25782518255916020019190600101906106c7565b5b5090506106f091906106f4565b5090565b61071691905b808211156107125760008160009055506001016106fa565b5090565b9056fea265627a7a72315820e079ca16b5799d2a5f12a02243ffa1722d615b765071b91da0ddd5a25c8b94b464736f6c63430005100032",
  "source": "pragma solidity >=0.4.22 <0.9.0;\n\ncontract sro {\n    string public sentence;\n    string public userName;\n\n    constructor() public {\n        sentence = \"Hello SRO tocken !\";\n        userName = \"Hello Ro\";\n    }\n\n    function saySomething() public view returns (string memory) {\n        return (concat(sentence, userName));\n    }\n\n    function changeSentence(string memory newSentence) public {\n        sentence = newSentence;\n    }\n\n    function concat(string memory _base, string memory _value)\n        internal\n        pure\n        returns (string memory)\n    {\n        bytes memory _baseBytes = bytes(_base);\n        bytes memory _valueBytes = bytes(_value);\n\n        string memory _tmpValue =\n            new string(_baseBytes.length + _valueBytes.length);\n        bytes memory _newValue = bytes(_tmpValue);\n\n        uint256 i;\n        uint256 j;\n\n        for (i = 0; i < _baseBytes.length; i++) {\n            _newValue[j++] = _baseBytes[i];\n        }\n\n        for (i = 0; i < _valueBytes.length; i++) {\n            _newValue[j++] = _valueBytes[i];\n        }\n\n        return string(_newValue);\n    }\n}\n",
  "sourcePath": "/home/imo/blockchain/sarahro/contracts/sro.sol",
  "compiler": {
    "name": "solc",
    "version": "0.5.16+commit.9c3226ce.Emscripten.clang"
  },
  "schemaVersion": "3.3.4",
  "updatedAt": "2021-04-10T21:44:54.457Z",
  "devdoc": {
    "methods": {}
  },
  "userdoc": {
    "methods": {}
  }
}